:020000040800F2
:1040000008050020D5CB0008B14B0008A14B0008E3
:10401000A54B0008A94B0008AD4B000800000000AC
:10402000000000000000000000000000B54B000888
:10403000B94B000800000000BD4B0008C14B000850
:104040001DCC00081DCC00081DCC00081DCC0008AC
:104050001DCC00081DCC00081DCC00081DCC00089C
:104060001DCC00081DCC00081DCC00081DCC00088C
:104070001DCC00081DCC00081DCC00081DCC00087C
:104080001DCC00081DCC00081DCC00081DCC00086C
:104090001DCC00081DCC00081DCC00081DCC00085C
:1040A0001DCC0008CD4B00081DCC00081DCC00081D
:1040B0001DCC00081DCC00081DCC00081DCC00083C
:1040C0001DCC00081DCC00081DCC00081DCC00082C
:1040D0001DCC00081DCC00081DCC00081DCC00081C
:1040E0001DCC00081DCC00081DCC000800000000FD
:1040F00000000000000000000000000000000000C0
:1041000000000000000000005FF808F12DE9F00F4A
:1041100082B09DF82850036B04686E1E4FEA934CE2
:104120004FEA9448F6B2002D00F0AE8045680136A3
:1041300001EB060B2E0A023201967FE0B0F90C600B
:1041400004EB0646F61A00F1A480AE4228BF2E46C4
:1041500005EB56069B1913D3360AB3FBF6F741F26B
:104160003456B7420CD88669013606F0010606F1CE
:104170000409866100EBC90640F83970C6F804C02E
:10418000A54213D9019EB4FBF6F741F23456B7426B
:104190000CD88669013606F0010606F1040C00EB26
:1041A000CC09866140F83C70C9F804804FEA944815
:1041B0004FEA934C476A08EB0C060097A6F5804639
:1041C000B7B1076ADFF8F0A007F580793AF917A0D0
:1041D000009FC0F820900AFB07FACDF800A0009FCE
:1041E00041F2345AD14506EBE73684BF00274762D7
:1041F000C76A0097B7B1876ADFF8BCA007F5807976
:104200003AF917A0009FC0F828900AFB07FACDF8EA
:1042100000A0009F41F2345AD14506EBE73684BF37
:104220000027C76222F8026C478A3EB2B6F5505F9B
:1042300036DC594502F1020226D004682C440460A1
:1042400011F8016B16B1002423460460B0F9126026
:10425000B6F5605FFFF672AF00264FF6FF77DFF826
:104260005C90240E39F9149032F9024C4FEA690936
:1042700007FB09F706FB047659454FEA264622F864
:10428000026C02F10202D8D1036302B0BDE8F00F64
:104290007047F643AE4228BF2E46A5EB560659E7B7
:1042A000B6F5605FD8DAA7F55057BF01BFB2C7F5C2
:1042B0007F46FF36D3E700BFE47F0108E07D0108B9
:1042C0002DE9F00F9DF820305F1EFFB2002B74D057
:1042D000456801370F4402324FEA152C03682B441E
:1042E000036011F8014B0CB100230360B0F91240D8
:1042F000B4F5605F64DA9D4278D8066B002E73D007
:10430000013E0663002E40F09280446B41F2345629
:10431000B4FBFCF8B0454FEA9344B0F8389011D89C
:1043200086690FFA89FB013606F0010606F1040AD8
:10433000A344CBF1000B00EBCA09866140F83A8038
:10434000C9F804B0A4F50054466AA6B1D0F820908C
:10435000DFF84CA109F580783AF919A041F23459F7
:104360000AFB06F6C84504EBE63488BF0026C0F811
:10437000208088BF4662C66AA6B1D0F82890DFF8D0
:1043800020A109F580783AF919A041F234590AFBC5
:1043900006F6C84504EBE63488BF0026C0F828803E
:1043A00088BFC66222F8024C468A34B2B4F5505F28
:1043B00068DCB94202F1020290D1BDE8F00F70470B
:1043C00000244FF6FF76DFF8DC801B0E38F91380EF
:1043D00032F9023C4FEA680806FB08F604FB036466
:1043E000241422F8024CE4E79C0CABE7B0F90C6013
:1043F000B0F81090B3FBFCF841F23454A04543638D
:104400000663A0F838903FF679AF84690FFA89F90E
:10441000013404F0010404F1040A09F5804900EBB9
:10442000CA0B846140F83A80CBF8049066E7B3F198
:10443000804F22D903F14048B8FBFCF841F23456D2
:10444000B0454FEA9344B0F8389011D886690FFA16
:1044500089FB013606F0010606F10409A344CBF1FD
:10446000000B00EBC90A866140F83980CAF804B035
:104470000026A4F50054066366E7B0F93860074CDF
:10448000A41B61E7B4F5605F9ADAA6F55056B60151
:10449000B6B2C6F57F44FF3495E700BF00E0FFFFEA
:1044A000E47F0108E07D01082DE9F00FB0F90CC0B0
:1044B0009DF82040BCF5FD4F00F3C680CCF5004CC4
:1044C0004FEA0C4C671EFFB2002C00F09C800137B5
:1044D00044680F44023A6BE0B0F912500668B5F533
:1044E000605F7BDA057F002D00F09080B44500F21C
:1044F000A880250ACCEB0608B8FBF5F841F2345544
:10450000A8450ED8856947F6FF7A013505F0010503
:1045100005F1040900EBC90B856140F83980CBF83F
:1045200004A000250577544DD0F82480B8F1000F81
:1045300015D0D0F820A0DFF844B10AF580793BF916
:104540001AA0C0F820900AFB08F841F2345AD1456D
:1045500005EBE83584BF4FF00008C0F82480D0F8A0
:104560002C80B8F1000F15D0D0F828A0DFF80CB1DE
:104570000AF580793BF91AA0C0F828900AFB08F8E0
:1045800041F2345AD14505EBE83584BF4FF00008BD
:10459000C0F82C80ADB25580B0F812800FFA88F9BF
:1045A000B9F5505F56DC6D42B94222F8025F2AD05D
:1045B00005682544056033B1A5422CBF00240124C1
:1045C0001C704468013311F8015B002D84D0B0F9F0
:1045D00012500026B5F5605F066083DB00254FF6BC
:1045E000FF78DFF89C90360E39F91660B9424FEA31
:1045F000660608FB06554FEA15455580C5F10005CE
:1046000022F8025FD4D1BDE8F00F7047B4428AD9D6
:104610004FEA1428B6FBF8F841F23455A8450ED8F5
:104620008569DFF860A0013505F0010505F1040991
:1046300000EBC90B856140F83980CBF804A0012557
:10464000057743F6FF756FE74FF4FD4585814FF021
:10465000C07C37E7B9F5605FC0DAA8F550584FEA7B
:1046600088181FFA88F8C8F57F492DB209F1FF09AB
:1046700005FB09F5B5E700BF01C0FFFFE47F0108B6
:10468000E07D01080180FFFF2DE9F0019DF8144055
:104690004668671E7608FFB20368FCB101370F4415
:1046A00011F8014B002C18BF00239C19A3191D0CF5
:1046B000240C45F3C03844F3C03C88EA45058CEA35
:1046C0004404A5F50045A4F5004445F34E0544F324
:1046D0004E042C44B94222F8024BE1D10360BDE8FC
:1046E000F00170472DE9F00390E808109DF818409C
:1046F00004F1FF385FFA88F81CB308F10108134F82
:10470000884411E0BC19C3F30F250236248837F919
:10471000069026B2C6EB090605FB06F5414504EBFB
:10472000254422F8024B0CD0634411F8019B1E0E65
:1047300076000025054CB9F1000FE3D002262B4688
:10474000E4E70360BDE8F003704700BFE07D0108C7
:104750002DE9F00F84B00390039B8489B3F90E30E8
:10476000039D0093DDF800809DF8300027B26B6850
:10477000C8EB0707DDF80C80461E47F6FF754FEAC9
:10478000530CF6B2D8F8003095FBF0F5002864D051
:1047900005FB07F50136364F8E190195029628461E
:1047A00007F1020811F8014B009D002C18BF0023EF
:1047B00063441C0C05EBE036C6EB061644F3C0352B
:1047C00085EA440546F31016A5F5004506F5006692
:1047D00036B22DB206FB05F5ED136344A5F5004591
:1047E0001C0CADB24FEA252944F3C03B8BEA440BC5
:1047F00037F8194038F919A0ABF5004B0FFA84F9D6
:104800000FFA8BFBC9EB0A090BFB06F6EDB205FBB1
:1048100009F5F61304EB2524A6F50046B6B244F3D9
:104820004E0414804FEA262937F8195038F919A098
:104830000FFA85F9F6B2C9EB0A0906FB09F605EB92
:10484000262545F34E052C4422F8024B029C019D7F
:10485000A1422844A6D1039DAC89DDF80C80A8F8BC
:104860000E40C8F8003004B0BDE8F00F704700BF3C
:1048700054AC01082DE9F00F86B00590059B059D0D
:10488000B3F90E30848902939DF838006B68DDF827
:1048900008B0DDF814C027B2461E47F6FF754FEA90
:1048A0005308CBEB0707F6B2DCF8003095FBF0F5C8
:1048B000002800F0848005FB07F5DFF81CC10136F5
:1048C0008E19444F0395049628460CF1020911F8FD
:1048D000014B029E002C18BF0023434406EBE03539
:1048E0001E0E3CF8164039F916A026B2C6EB0A0691
:1048F000C3F30F2A0AFB06F6C5EB051545F31015A1
:1049000004EB264405F500652DB224B205FB04FA3C
:104910004FEAEA3AAAF5004A1FFA8AFA4FEA2A242D
:10492000DFF8B8B037F814603BF914400FFA86FB93
:104930005FFA8AFACBEB04040AFB04F406EB2424A6
:10494000434444F34E0414804FEA136A3CF81A605F
:1049500039F91AB00FFA86FACAEB0B0AC3F30F2B18
:104960000BFB0AFA06EB2A4A0FFA8AFA0AFB05F64B
:10497000F613A6F50046B6B2DFF860B04FEA262A75
:1049800037F81A503BF91AA0F6B2CDF804A0DDF8BA
:1049900004B00FFA85FACAEB0B0A06FB0AF605EB20
:1049A000262646F34E063444049E039DB142284415
:1049B00022F8024B8BD1DDF814B0BBF80C40DDF8C7
:1049C00014C0ACF80E40CCF8003006B0BDE8F00FD3
:1049D000704700BF60B20108E07D010862B20108C3
:1049E000B0F90C302DE9F00FC3F5FF43B0F91240D8
:1049F0007F3304EB63034FEA831B9B1282B00E2BC1
:104A00001FFA8BFB9DF8284054D82D4D03F1030667
:104A100018BF043355F826C00CBFD5F8448055F8AC
:104A20002380631EDBB2002C40D05C1C0C1990E884
:104A300028000094019529E0AF1CC3F30F243CF833
:104A400005603CF907A038F805500FFA86F938F9E7
:104A50000770C9EB0A090FFA85FA04FB09F9CAEBDA
:104A6000070704FB07F706EB29491FFA89F905EB4D
:104A700027450FFA89F62DB2AD1B0BFB05F509EBA7
:104A80002549009D22F8029BA9420FD0019C0026D7
:104A90002344036011F8017B1D0E34466D00002F86
:104AA000CAD00660022735463346C8E702B0BDE8E3
:104AB000F00F7047024BD3F844C0E046B1E700BFA7
:104AC000BC02002044F2FF539942A8BF1946B1F539
:104AD000804310B44FF0000004D513F5C06300F11B
:104AE0000100FAD41911094A4C1C52F8244052F81A
:104AF000212003F00F03A11A03FB01F302EB2312A1
:104B000022FA00F05DF8044B704700BF647701089B
:104B10002DE9F04F0446057D94F815E01F4883B059
:104B200000EBC506AE45894690461F46766850F8AC
:104B300035B09DF830A009D0242204F118000021DE
:104B400008F0E4F8227D002362752360B4F9125066
:104B500020462946FFF7B6FFB5F58C4F606012DDA1
:104B60004FF48C436382F30713D57610A359A01931
:104B700053F80B50CDF800A0494642463B46A847A3
:104B800003B0BDE8F08F002DBCBF00236382F307A4
:104B9000EBD404EB66005D46ECE700BF00000020AC
:104BA000FEE700BFFEE700BFFEE700BFFEE700BF75
:104BB000704700BF704700BF704700BF704700BF1D
:104BC000014806F007BF00BF3C060020624B2DE9FC
:104BD000F0011A8AD20702D4BDE8F00170474FF6FF
:104BE000FE725E481A825E4D02682B685D4902EBD8
:104BF000420203EBC20231F812205B4EA2F50042E2
:104C00005A4992B24FF48054170A0C614C61B78133
:104C100000BF00BF00BF00BF00BF00BF00BF00BF9C
:104C200000BF00BF00BF00BF00BF00BF00BF00BF8C
:104C30001202A1F5544192B204F180448A8104F534
:104C400078444B49A4680A7884F01004C4F3001433
:104C5000002A4DD00027B846464A0068167800EB77
:104C6000400003EBC000DFF828C1013348EA060624
:104C7000172B0C700CF800701670384905D90868AD
:104C80000023013000F0030008602B603A4BD97814
:104C9000012956D03CD3022908D1384900208C89FB
:104CA000D87004F00F0424021C8088815988324B8C
:104CB000B1F5807F90D13249DD889C8818895B8965
:104CC000A1F8B050A1F8AE40A1F8B200A1F8B430FC
:104CD0008EB92C490B88002B3FF47EAF013B9BB271
:104CE0000B80002B7FF478AF274B01221A7073E7FB
:104CF0002746A046B0E7254B1B7953B3012101FAA3
:104D000003F30B449BB21F4900200B801070E2E7B5
:104D10001A48997884891D8801F1010C2543134CA8
:104D2000ADB203EB41080CF0030C012106271D80F6
:104D3000A8F804502161616183F802C0D9708781AD
:104D4000B4E798780D49800102248D89DC70888150
:104D5000ACE70123D7E700BF002C0140500700203B
:104D6000640700200C05002000380040000C0140C2
:104D700048070020444A002054070020003001402A
:104D80003C0600200805002060070020C04A0020E3
:104D9000D00500202DE9F041012240F2ED217E48AE
:104DA00007F0BAFA7D4806F021FD7D48002506F09F
:104DB000F1FD7C4B29467C487C4C1D6007F098F83F
:104DC0007B4807F007FA7B4807F0FAF82946A56701
:104DD000E567C4F88050C4F88450C4F88850C4F81B
:104DE0008C50C4F89050C4F89450C4F8985025667C
:104DF000C4F8B450C4F8B850C4F8BC50C4F8C0509B
:104E0000C4F8C450C4F8C850C4F8CC50C4F8D0504A
:104E1000C4F8D450C4F89C5004F59C70D02207F01C
:104E200075FF4FF48456012340F6FD724FF4804124
:104E3000C4F80852C4F81052C4F81452C4F81C52F2
:104E4000C4F82452C4F82852C4F83052C4F8385276
:104E5000C4F83C52C4F84452C4F84C52C4F85052FE
:104E6000C4F86C52C4F87052C4F86052C4F88C5242
:104E7000C4F89052C4F88052C4F8AC52C4F8B0528E
:104E8000C4F80C22C4F82022C4F83422C4F8482202
:104E9000A4F85A62A4F87A62A4F89A62A4F85C12A0
:104EA000A4F87C1284F8583284F8743284F878328A
:104EB00084F894324048A4F89C12C4F8A052C4F874
:104EC000145184F8983284F8B43284F8343184F878
:104ED000333107F095F9394C394D04F1C006A4F18E
:104EE0003003002223F8022B9C42FAD1A5F11803CB
:104EF000002203F8012BAB42FAD1A4F132020023C5
:104F000003F6AA2022F8023F4FF6F07183B28B42DB
:104F1000F6D13034B44205F11805E0D129494FF4F7
:104F20000A50294A086012682848294900FB02F201
:104F3000284E294C294D002311440227284A376066
:104F4000C1F30668C1F3064CC1F306272B6001F0DC
:104F50007F01244D2360244C01F1400608F14008F4
:104F600040374FF6FF710CF1400C82E80801D76022
:104F700016616B83AB83AB602B61A982A1826383D3
:104F8000A383A36023610448BDE8F04153619361AA
:104F9000C2F808C007F006BAB84A0020C04A00208C
:104FA0003C060020284B00205407002088070020E2
:104FB00048070020AC4A0020A04A00203C05002001
:104FC000E8050020A84A0020ECF7FF1F0D66190035
:104FD0005FF36E3C50070020340600206407002079
:104FE00068070020484A0020FC0600202DE9F04F09
:104FF000BC4C8FB094F805A0E57CAAF10202D2B2B5
:10500000267D012A04950596637D40F27F86AAF1EC
:105010000502D2B2B44D012A039540F2918618469A
:10502000049E7F2828BF7F207F2B28BF7F23012E4F
:1050300000F0DE85627CAD49C2F1800502FB000014
:1050400005FB03F380099B09DFF8B8B27F2B28BF6B
:105050007F237F2828BF7F2051F8232051F820E0AC
:105060000D68DBF83430CBF80420CBF800E0CBF847
:105070000C50DDF81090DBF844205BF82360B9F1A8
:10508000010906EB020894F80BC0677BD9F1000216
:105090004FF0000052EB0902CBF84480ABF8160049
:1050A000ABF818008BF848208BF849C08BF84A7091
:1050B0007AB1012B0DD9BBF83C900346CBF83400F4
:1050C000CBF844008046BBF81400ABF83890ABF83E
:1050D0003A00464500F2DC835BF8236016B1012BF1
:1050E00040F22685BBF83C600996BAF1020FA07D1C
:1050F00000F05D85BAF1040F00F0598506460AF00C
:10510000FD03052B00F03F86637F33B1099F5BB23F
:1051100003FB07F39B1406EB4306059F7F2E28BF76
:105120007F267F2828BF7F20012F00F07285A37C77
:10513000C3F1800707FB00F003FB0666059FB60975
:1051400080097F2828BF7F207F2E28BF7F26022F3F
:1051500028BF0022664B51F8267051F82010586B7A
:105160005960DD601F60596C53F8206094F80CC0E2
:1051700094F80EE00025314483F848205964DD821C
:105180001D8383F849C083F84AE06AB101280BD92E
:10519000B3F83C80B3F8149028465D635D642946FB
:1051A000A3F83880A3F83A908E4200F24D8353F86A
:1051B000202012B1012840F2B784B3F83C80CDF82A
:1051C0002C804C4F94F826503978464A079569B19F
:1051D000079F002F00F06884474D92F84B00297814
:1051E0000131C9B28842297040F2B584434E069617
:1051F000BAF10A0F3B4894F84D2000F05E840C92FF
:10520000DFF8F0C09CF800201AB10C98002840F09C
:10521000E183039D049EE27BA9885200022E4FEA9F
:10522000C101D2B200F01C85DDF8248008FB02F237
:1052300001EB6221059D227C022D4FEA4202D2B28F
:1052400000F007850B9F02FB07F201EB6221079D2F
:1052500025B194F82220D50700F15184039E049FC4
:10526000E07DB6F806904000022F81F30F014FEA6F
:10527000C908C0B200F0E584DDF824C00CFB00F0E2
:1052800008EB6020059D227E022D4FEA4202D2B239
:1052900000F0B8840B9F07FB02F200EB6222079D2F
:1052A000002D00F0B48294F82200800700F12E84D3
:1052B000DDF8189082F30F02A9F80220A9F8001077
:1052C000039D277A2E8937B10D490A88101D864221
:1052D00040F323840E8094F80690024A19F0FB0FE5
:1052E00012E000BFC04A00205407002034D8000854
:1052F000FC060020600700203206002088070020FE
:10530000BE4A0020484A0020CDF8209000F02B82B1
:105310000898012800F0A6850899032900F0FD856A
:10532000A6F2666606EBC60694F83A20761006F5F5
:10533000F056002A40F02282A17FE57E003118BF9E
:105340000121207F94F8242045B1DDF82490A9F5AF
:10535000FF4EAEF17F0E05FB0EF5ED1258B1DDF8F4
:105360002CC0ACF5FF4EAEF17F0E00FB0EF0C0126C
:10537000002A40F0038359B1049A022A059A0CBF0F
:10538000C5EB06067619022A0CBFC0EB06063618D6
:10539000012F00F06C84022F00F0EA8400F29E825C
:1053A000BAF1000F0FD1DDF80CC0089FE26DBCF818
:1053B0000AE0032F1DBFC2EB0E02C2EB021242F342
:1053C000D30252461644B94F3A78002A40F0F3818E
:1053D000B7F802E07A68AEF5004EC2EB0E2E02EB93
:1053E0002E227A60BAF1090F4FEA2242324400F0CD
:1053F000E881AF4EE778D6F800E03FB1CEEB020E81
:105400000EF13F0EBEF17E0F00F2C182326059B93B
:10541000049F022F0CBFC5EB02025219059D022DFD
:105420000CBFC0EB02021218BAF10D0F607A00F047
:105430008383BAF1110F00F07F83002800F087808A
:105440009C499D4D0E68DFF8AC9235444FEA156CCF
:1054500039F81C60994F0D96DFF89CE23E6809F11F
:1054600002090EFB06F639F91CC0DDF834900196EE
:105470000FFA89F6C6EB0C06C5F30F2CCDF828C041
:10548000DDF82890DFF838C209FB06F60296019E87
:1054900080F30700B4440EFB0CF90D9ECDF8289064
:1054A000A8F58049DDF808800FFA89F906EB28464F
:1054B0000D96DDF83480824E0FFA88F828EAE878F5
:1054C000CDF808800D90DDF82880029846440D60E4
:1054D000A0F5355547F6FF7029EAE9794FEA1C4CEB
:1054E000B0EB264F1FFA89F93E601FFA8CF800F0E6
:1054F0005D844E6988680FFA89F900FB09F94868EC
:10550000D1F818C000FB05F5C868CCEB060E0FFA01
:1055100088F80CEB2E4700FB08F80869BE1200FB68
:1055200006F64FEAA92000EBA53000EB682000EB5F
:10553000262010F5004F8F6140F3FF83B0F5004F38
:10554000A8BF7F20C0F2BC870D9900FB0122079DF8
:1055500015B15C4909680A440C9E16B15A4909689C
:105560000A4494F82300E179089F584D042FA0F1D4
:105570004000A1F10201DFF86881104401EB410114
:1055800018BF002580F30F0005EB4121DDF81890CE
:1055900098F800200144A9F8081094F8211052B39B
:1055A0004B4A002900F0E581069E012286F834214D
:1055B000E27F3AB1474805780135EDB29542057072
:1055C00080F0378494F8202072B143480578013583
:1055D000EDB29542057007D39D8A0B9E00221E876F
:1055E0005D875A635A6402703C4A3D4F0120002394
:1055F00082F8B7003B703B4D3B4A2F682E683B4B0F
:1056000007EB470706EB460602EBC70703EB061658
:10561000002900F0E882394635483246182305F063
:10562000ADFF94F82530617EA27E03EBC3139B008F
:1056300049005200BAF1080F1846C9B2D2B2244F3D
:1056400000F01A83DDF8109009F1FF33DBB2012B73
:1056500040F22B83049F032F00F07C83DDF814902D
:1056600009F1FF33DBB2012B40F22D83059F032F9D
:1056700000F07783079F27B194F822305B0700F191
:105680007281BAF10E0F80F3100063787ED0AAF118
:105690001002D2B2012A79D9AAF10F07FFB2022F64
:1056A00094F837200A493DD828E000BFA04A0020DE
:1056B000944A00206807002033333303040300209A
:1056C0005FF36E3C4C0700209C4A002000EEFFFF79
:1056D000C04A0020CC050020BC4A00203C06002027
:1056E0006007002034060020D00500200C050020B3
:1056F00088070020E07D01080D661900DDF80C9098
:105700008C79B9F80A70C96D032C1DBFC1EB070174
:10571000C1EB011141F30A310021521AD2B2062A1B
:1057200028BF06229D499E4C31F81370002334F89F
:1057300012201C46B3FBF2F102FB1131013309B90F
:1057400034883C4021B200FB01F1182B4FEA214183
:1057500026F8021BEED12B68013303F003032B6004
:105760000FB0BDE8F08F916D526D01FB06F602EBB4
:10577000263694F83A20002A3FF4DEAD894D2A7887
:10578000002A00F00181884A1660D5E5DDF80C801A
:10579000A179E26DB8F80A7003291DBFC2EB0702B8
:1057A000C2EB021242F30A3200229B1ADBB2062B32
:1057B00028BF062370E70022BAF1090F32447FF4B4
:1057C00018AE7A4FDDF80C90B7F800E0B9F80A602F
:1057D0000EF1040C664540F3E3823E80B646089E17
:1057E000E76D032E3FF405AEC7EB0E06C6EB0616BB
:1057F00046F3CB2616F11F0F80F248831E266C4F0E
:1058000037F8166006EB4606A2EB9602F1E5DDF8E6
:1058100018C082F30F02BAF1010FACF80220ACF805
:105820000010644A00F0D48244F2B821505C217820
:10583000DDF818E088421CBF012082F8340144F2F0
:10584000B8220EF802103BE5598F5B4DC1EB0141C8
:10585000090C9987002A74D0012872D9A88A0022DD
:10586000298768876A636A64002F3FF4A6ACE6461E
:10587000BEF1090F00F2E285DFE81EF094058C0509
:10588000A5052B05400543055C05D904F60419055B
:10589000BBF83A00494EC0EB0040000CABF83C00AE
:1058A000002A35D0012B33D9B38A30870020738783
:1058B00070637064BEF1000F3FF414AC6746092FAB
:1058C00000F2C285DFE817F0930582058B058F058E
:1058D000E4030A0426045A0472049C044036384A3D
:1058E000C6F3C716A2FB0692D208A2EB820E06EB05
:1058F0008E0E033F07EB47075FFA8EFE314E0EEB2D
:105900008707F65D02EB420206EB8206F60147E5E9
:105910000133DBB2042B0BEB430608BF0020B6F8C3
:1059200014E008BFABF83C00ABF8380000205BF88F
:105930002360ABF83AE0CBF83430CBF84400FFF703
:10594000CDBB0130C0B2042803EB400208BF0021E8
:10595000958A08BF99871987002153F820205D8711
:105960005863596425E4184B1B7800FB03F0C01101
:1059700087E61278242A7FF417AE19E6DDF8249022
:1059800009FB00F00014F6E4074A1668D4E40F4F50
:105990004FF0010E87F800E038E500BFDCCE0008CC
:1059A00058D0000860070020A84A002030060020D8
:1059B0000CD0000888070020FC060020484A002080
:1059C000ABAAAAAAECCE000884070020444A002013
:1059D00020250C95BF4894F84C1002780132D2B2C1
:1059E000914202703FF615ACBB4900250A6805706C
:1059F000DFF810C3002A40F02C82DCF80020B74802
:105A0000B74E00FB02F2164494F85020CCF8006028
:105A10000E60B046002A00F02382B24805780135B6
:105A2000EDB295420570C0F01B82AC4AAC4D02FB52
:105A300008F215440022A846CCF8005002700C9ED3
:105A400005F0010732B21F2AD6BF25FA02F600265A
:105A500006F001066D08A048002F00F08982571E4D
:105A60004FF0010E0EFA07F73D4305601F2A05DCD3
:105A7000002E00F0BA8245F000450D60BAF10B0F20
:105A8000994894F84F2000F07F8212B27F2A40F3A9
:105A90000B829248924A00FB08F00244CCF80020A6
:105AA00085F001050D600EE29048BAF10A0F0690EC
:105AB00094F84D208C487FF4A2ABDDF80C908179EE
:105AC000B9F80A50C06D03291DBFC0EB0500C0EB3B
:105AD000001040F38C2100210A4492B20C9212B2C1
:105AE000002AC0F2E384202A7FF78AAB804F3A78FD
:105AF000002A7FF46DAF20200C90FFF78ABB7D4A0F
:105B0000127801FB02F1C911FFF7A8BB79480078B0
:105B100002FB00F2D211FFF7CBBB101F8642FFF64B
:105B2000D9AB1646FFF7D7BB00287FF4A1AE9EE69F
:105B3000002B7FF4C4AEC1E6039E089FE16D75891A
:105B4000032F1DBFC1EB0501C1EB011141F34D2135
:105B50000021084471E4684892F838200678002152
:105B600096422970DFF8A0E100F08581634F01269D
:105B7000634D02708EF800103E702820205C2E705D
:105B8000B0425F4D00F2CC8100202870002A40F026
:105B900059820131C9B2C8B2079E45B2B54240F33D
:105BA00072828EF8002043213B202722C0E1DDF8DD
:105BB0000C90E36DB9F80A60A779F31AC3EB0313ED
:105BC0005E02032F4FEA263314BF76140026BAF183
:105BD000020F064440F0D180032F14BF5B11002355
:105BE0001844FFF791BA3846182207F08FF812E5EB
:105BF000A278002A3FF41EAAC0F17F00C3F17F0300
:105C0000FFF718BA0B9E06FB02F2A0EB6222FFF729
:105C100046BBA3781BB1C6F17F06C0F17F00A37C11
:105C20000122C3F1800703FB066607FB00F0B609FB
:105C300080097F2828BF7F207F2E28BF7F26FFF77F
:105C400089BADDF8249009FB00F0A8EB6020FFF78B
:105C500019BB0B9E02FB06F2A1EB6221FFF7F7BA1C
:105C6000099F07FB02F2A1EB6221FFF7E3BA20369E
:105C700026F03F06FFF794BBB879DDF80C800328C7
:105C8000FF6DB8F80AC000F07C81C7EB0C07C7EBCA
:105C9000071747F3D30000011844DDF8109009F10D
:105CA000FF33DBB2012B3FF6D5ACDDF824C0DDF8C5
:105CB000149001FB0CF109F1FF33DBB2012BA0EBD7
:105CC00011203FF6D3ACDDF82CC002FB0CF2A0EBA8
:105CD0001220CFE4B44A0020380600200D661900D7
:105CE0005FF36E3CF8060020C04A002088070020C1
:105CF0006007002084070020994A0020400000200F
:105D0000984A00200403002061070020BF4FE26D85
:105D10007889A179821AC2EB0212500203294FEA54
:105D2000203214BF4014002003971844032914BFE5
:105D3000521100221344FFF773B96FF07F0003E4A0
:105D40006889E26DA179821AC2EB021242F3D30292
:105D50001846EBE7DDF8248001FB08F100EB112089
:105D60007CE4DDF82C8002FB08F200EB122081E4D9
:105D7000403626F07F06FFF713BBBAF1040F3FF45D
:105D80002BAFFFF7BCB9DDF80CC0E36DBCF80AE03F
:105D9000A779C3EB0E03C3EB031343F3D3031BE752
:105DA000AEF1040C6645BFF61AAD16E50EFB06F61D
:105DB00097481CF0010F30444FEA204E3860486984
:105DC00018BF0EF1010E00EB0E264E61FFF792BBDD
:105DD0009049039F08687E89E26D851CB21AAA4229
:105DE00003DC851EAA4280F24C810A602C2101FB53
:105DF00002F22178DDF8189001EBE222292A44F220
:105E0000B82119F80110DABF22EAE272D2B22A22CE
:105E1000914281481CBF012180F83411DDF818C07F
:105E20007E4844F2B82180F8B9200CF80120FFF731
:105E300047BABBF81450DDF824C00022ABF838C0D4
:105E4000ABF83A50CBF83420CBF844200270FFF77F
:105E5000B9BB94F85020DCF80080002A7FF4DDAD57
:105E60000D68ECE5926DA6F2666602FB06F6361347
:105E700006F5F0567DE46A4D9EF800102E7801F18B
:105E8000140040000136C0B2F6B277E61F2EC8BF3C
:105E90001E2740F31183634E36F8176006EB460663
:105EA00002EB9602FFF7A5BA5F4E594806FB08F6CB
:105EB0003044C0F3C7569642CCF80000FFF6F0AD70
:105EC0007F2A3FF4EDADBAF10C0F584994F84E20FB
:105ED00076D012B2242AA8BF2422EDB205FB02F22A
:105EE000110ACAB294F8510090B1182800F28180CA
:105EF0004F4901380D5C4F4EB2FBF5F105FB112205
:105F000006EBC000D2B2825C01EB410102EB8101E1
:105F1000494AC9011160FFF77CB94FF40A5628E4D9
:105F20004A00273201F13B004331D2B2C0B2C9B2BC
:105F3000394F44F2B8257D5DA25C265C95421CBFBA
:105F4000012587F834511F3E3C4DF6010697615CF0
:105F50002E603B48314EDDF8188001EB810144F2A0
:105F6000B825017086F8B92008F80520FFF740B978
:105F7000571E4FF0010E0EFA07F725EA07050560D8
:105F800074E50020184488E6DDF80C908779B9F8AC
:105F90000A60C06D032F1DBFC0EB0600C0EB0010F0
:105FA00040F30E200020024412B2002ABFF66EAD6C
:105FB0001D49174A01FB08F10A44CCF8002082E78A
:105FC0008E79DDF80CC0032EC96DBCF80A0000F014
:105FD0004182411AC1EB011141F38C210231521867
:105FE0007FF578AF002211467CE725F000450D6073
:105FF00044E519287FF40DA90A480F4A30F811101A
:1060000001EB410189081160FFF703B95407002033
:106010005FF36E3CB04A0020880700203C06002059
:10602000984A00200CD000080D661900C04A0020D4
:10603000C4CE000804CE00089C4A00204C07002073
:1060400084070020012A00F0EA81022A7FF468AF69
:10605000C748C84D0168C84A05FB01F1079E0A44BC
:10606000550F06FB0555ED10E9B202604A0001F13B
:106070003B00273243318EF80050D2B2C0B2C9B2D1
:1060800056E70246B2E64A0027328EF8000049E79A
:10609000DBF84400B94F060E37F81630023737F9EF
:1060A00016701EB2C0F30F20BE1B00FB06F003F5F6
:1060B000FF437E3303EB2043BBF83A009BB200FB67
:1060C00003F0C3F57F43BBF83860FF3303FB0603DF
:1060D0001B0C0993ABF83C30FFF707B8DBF8440022
:1060E000A74B060E9F1C33F8163037F81660C0F326
:1060F0000F20F61A00FB06F0013B03EB10435B0098
:10610000BBF838009BB200FB03F0BBF83A60C3F564
:106110007F43DAE7DBF844609A4F002E40F0B0810D
:10612000DFF84CE2DFF84CC2DEF8003092480CFB9E
:1061300003FC60441FFA80FCCEF80000A7F83AC0C8
:10614000914B370E981C30F8170033F81730C6F310
:106150000F26C01A06FB00F003EB10439BB20CFBAA
:1061600003FCBBF83800C3F57F43FF3303FB00C3D8
:106170001B0C0993ABF83C30FEF7B7BFDBF844606B
:10618000804F002E40F07F81DFF8E4E1DFF8E4C1CA
:10619000DEF8003078480CFB03FC60441FFA80FCFA
:1061A000CEF80000A7F83AC0330CD8E7DBF844601B
:1061B000744F002E40F06181DFF8B4E1DFF8B4C124
:1061C000DEF800306C480CFB03FC60441FFA80FCD6
:1061D000CEF80000A7F83AC0684F300E37F81030FC
:1061E000023737F910E01FB2C6F30F26C7EB0E00D7
:1061F00006FB00F003F5FF437E3303EB2043ADE7DE
:10620000DBF844305F4E002B7EF46CAF584FDFF864
:1062100064E13B6858480EFB03FE70441FFA80F8A7
:10622000CDF824803860A6F83C80FEF75EBF586C3D
:10623000564D002840F01F814D4E4E4F31684E4A5A
:1062400007FB01F10A4491B232606987020C01FB3D
:1062500002F1C2F57F42188FFF3202FB0012120CCE
:106260000B929A87FEF7ADBF586C484D002840F05E
:106270000D813F4E3F4F31683F4A07FB01F10A4411
:1062800091B2326069873D4E050E36F81520023610
:1062900036F9156015B2C0F30F20751B00FB05F031
:1062A00002F5FF427E3202EB204292B2CFE75A6CF7
:1062B000364D002A7EF481AF2D482E4E01682E4ABD
:1062C00006FB01F10A4496B20B960260AE87FEF718
:1062D00078BF596C2E4D080E35F81020023535F96F
:1062E000105010B2C1F30F21281A01FB00F102F582
:1062F000FF427E3202EB2142598FD6E7596C1F4D87
:10630000E9E7596C1E4A080E951C32F8102035F842
:106310001000C1F30F21801A01FB00F1013A02EBDA
:1063200011425200198F92B201FB02F1588FC2F54F
:106330007F4291E7586C154D002840F09A800C4E32
:106340000C4F31680C4A07FB01F10A4491B23260EC
:1063500069870D4A050E961C36F8156032F815202F
:10636000C0F30F20B51A00FB05F002EB10429CE7CA
:10637000040300200D6619005FF36E3C50AA01086B
:1063800084BF0108484A002048670108FC06002035
:10639000E8780108B3F84610588FC1F57F4200FB3A
:1063A00001F158E7596C4A4A080E951C32F8102042
:1063B00035F81000C1F30F21801A01FB00F0598F4E
:1063C00002EB104271E7596C424D84E7BBF846007E
:1063D000BBF83A60C0F57F4306FB00F073E6DBF8DC
:1063E00044003C4F57E6DBF844003B4F53E6DBF8F4
:1063F0004400374B060E9F1C33F8163037F81660F2
:10640000C0F30F20F61A00FB06F6BBF83A0003EBC8
:1064100016439BB200FB03F0C3F57F4353E62F4EB8
:106420003578CDB10131C9B2CDB2079F6AB2BA4257
:106430002EDA4A0027328EF8005073E5B3F83CC0DC
:10644000CDF82CC0FEF7BDBEBBF83C90CDF8249033
:10645000FEF74BBE0221C2E50139C9B2C8B28EF8BF
:10646000000000287FF45CAD327043213B202722DE
:106470005EE5698F6DE7698FE8E6B7F83AC0ABE68D
:10648000B7F83AC05CE6B7F83AC08DE6698FFAE62D
:10649000079D30706A002F4627328EF8005007F1B2
:1064A00043013B35D2B2E8B2C9B241E50C490A78A2
:1064B00000220C92FEF7ADBE002E04DD771EEAE44A
:1064C0000012FFF741B83EF494AFF643FFF797B9D7
:1064D0004867010860B20108E87801084000002020
:1064E0006007002038B5FEF755FC084D084C2A68B7
:1064F00023689A4205D0FEF779FD2A6823689A42FC
:10650000F9D1044805F06AFCF1E700BF3406002029
:10651000500700203C0600202DE9F00FB0F9105084
:1065200044684FEAA51A4FEA9409CAF5007A5C1E3E
:10653000934682B01FFA8AFAC0F80490E4B2026867
:10654000C58C90F824C02BB301340C194FEA890391
:106550000094019311F8014B194B002C18BF002235
:10656000144603F110080026AA454C441AD90135F7
:10657000ADB253F8047F434507FB0C66F4D1019B91
:1065800036121A44009BA6F5DC46303E99422BF8A1
:10659000026BDFD180F824C0C584026002B0BDE880
:1065A000F00F7047C57C4FEA146C8CEA450C2CEA5E
:1065B000050C0CEB55055FFA85FC0125D9E700BFFA
:1065C00034D500082DE9F00FB0F9128090F82010B2
:1065D0004FEAA81808F1C80886B01FFA88F8078A99
:1065E00089B37B4E7B4D34687B4905FB04F4214421
:1065F0004FEA114C0CF1010C0CF0070C774C4FF0EA
:10660000A0090CEB4C0A00253160A0F8489004EB7F
:106610004A0480F820504FEA0839014626780135AF
:1066200009FB06F64E62E678032DCE6304F1010401
:1066300001F10401F2D1BCF1060F40F6FF7138BF41
:106640000021A0F84A10B0F84860002E00F08B80BE
:10665000B0F84A10013EA0F8486002915E1EF6B202
:106660000496002B7BD0049D90E84800911CF31801
:10667000574C059301EB450103912368DFF86881CE
:10668000DFF868C10599009622E04F443C440F0EA4
:1066900024B2C7F1FF0707FB04F7A7F50047BFB215
:1066A0003D126D00FFB205F102093CF805403CF9CE
:1066B000099025B2C5EB090507FB05F5DDF80CB01F
:1066C00004EB252422F8024B009E5A4531443FD06A
:1066D000404D466A05FB03F5076B3F4B37442B449F
:1066E000466B856A846B3544C66ADDF808B034446D
:1066F0004FEA1769C66B4FEA234A07630BFB0A1A76
:1067000009F0F0094FEA156B076C49EA06090BF02E
:10671000F00B38F819904BEA070745634FEA146B02
:10672000456C0BF0F00B2E4E4BEA050538F8177050
:10673000846336F81540009DAA45A6D20024046360
:106740004463846327464FF481794FF48075ACE746
:106750000499059A1E4C06FB01260660236006B0CC
:10676000BDE8F00F704747F303314D1C1D4C01EBA2
:106770004101C7F30B0705EB450504EB4505C7F5DC
:10678000805C04EB41049A4601462B7894F8009013
:1067900007FB03F30CFB093308FB03F34B6295F88B
:1067A0000390E37807FB09F90CFB039901364FEAE4
:1067B0002933032ECB6305F1010504F1010401F136
:1067C0000401E2D100215346A0F84A10029145E7A6
:1067D000040300200D6619005FF36E3C60D50008CD
:1067E0003C5F010884D20008FCD70108E878010862
:1067F0002DE9F00F446890F820108AB064000590ED
:106800000693446000293BD0837F05990133DBB2B6
:10681000022B84BF05980023837703EB830301EBEE
:10682000C30620360023351DB4F5000FAB602346A8
:1068300040F32781012100E001465B10B3F5000F12
:1068400001F10100F8DC4FF480630B41A960581E90
:10685000059FB7F91210736001EB4101491001F572
:10686000005101FB03F1090C696167000599EC61B6
:106870002F620023E86048686B6081F8203000E0F8
:106880002046059DAB7FB5F9101003EB830305EBA4
:10689000C3035D6C854294BF1D641864B1F5804FDD
:1068A000A2BFCB10A3EB431303F500394FEA943397
:1068B000C3F580539BB218B2B8BF4FF6FF79FF28DB
:1068C000D8BF4FF48073B1F5804F80F2D7801BB2F0
:1068D000C1F5804101FB03F3C3F38F33089305999E
:1068E000069BB1F848100791002B00F0CF80059966
:1068F000684B01F5CD510391039C059D04320A3488
:1069000005F5D2751968029203940995CA460027C5
:10691000059D099A0097A86B00283CD05E4C5F4B00
:1069200004FB01F10138A8630B4432F9104019143B
:1069300001EB41010C44009FA4102744194622F8A2
:1069400010400097039B02F602029A4205F12805C7
:10695000E1D1534B009C9C42C0F28180B4F5004FC2
:10696000C0F2968047F6FF7500952B46079F009A68
:10697000069C38B2029D10444010A21E25F8040C5B
:1069800025F8023C12F0FF0205F10405029506927B
:106990006BD00793BBE7EB6BEC6A286C04F1160C29
:1069A00000EB030929FA0CFCD5F830800CF1020C3D
:1069B000AB6A0CEA080C9C450194C5F83C9052D097
:1069C000CDF81090A946089D0C463348334900FB8A
:1069D00004F42144581C8CB200EA0800A24532F8A5
:1069E000107002EB430632F813B011D30FFA8BFB91
:1069F0003FB21BEB070743BF7F427F107F427F10F0
:106A00002DB12CB2C4F5004404FB07F7FF13378007
:106A100023B91488D9F8243022F81340844502D0D1
:106A20000C460346D1E74D46DDF81090019FA86261
:106A300029FA07F94FEA995032F8103002EB40007A
:106A4000B0F9024018B2201AC9F38F1909FB00F9F6
:106A5000009803EB29431BB21844009072E700939F
:106A600048F2010382E76046E0E70A4F3960059883
:106A7000A0F848300AB0BDE8F00F70470020089039
:106A80002DE740F2FF304FF48063E1E60B46EEE77E
:106A9000A3B26BE7040300200D6619005FF36E3CA0
:106AA0000180FFFF2DE9F00F468AB0F9165034B28D
:106AB00005F1400786B0BC428C46039204DCA5F188
:106AC0004002944280F2A880C68204EB8404C4F39E
:106AD0005032524902EBC2025200B0F910608C5C95
:106AE000760004FB06F60A4402EB164251789478CD
:106AF00045684B4A01EBC11104EBC4145F1E6D08DD
:106B0000114414440295FFB2002B00F0818001373C
:106B10006744B6B20368059704960190654665E040
:106B200006F10108C3F35702029811F808B014F8EF
:106B300008900344DDF80480580E11F806C0471C85
:106B4000A65DC8F8003011F807A014F807800F5CA4
:106B5000CCEB0B0B205CC6EB0909C7EB0A0A02FB66
:106B60000BFB02FB09F9C3F35702C0EB080802FB59
:106B70000AFA08FB02F84FEA0C2C3F02ACF5004C75
:106B8000A7F50047360200020CEB2B4BA0F50040A6
:106B900007EB2A4AA6F500461FFA8BFB1FFA8AFA72
:106BA00000EB284806EB29490FFA8BFC0FFA8AF70D
:106BB00004980FFA89F90FFA88F8CCEB0909C7EBAA
:106BC000080800FB08F800FB09F90AEB284A0BEB60
:106BD000294B039A4BF34E0B4AF34E0ADDF814800F
:106BE000DA4422F802AB4545039211D00298019A8B
:106BF0000344136015F8017B002002465E0E002F4F
:106C00008ED0019B4FF001081860064603468BE7C3
:106C100006B0BDE8F00F70472C4656E7D0D3000809
:106C20003CDE00082DE9F00F96B0B0F912C00C90D0
:106C3000B0F91000CCEB0C1CC0EB00104FEA2C1C80
:106C40000011CCF3C426C0F3C4274FEA4C1C40010A
:106C500001361FFA8CFC80B2984D994C0991109224
:106C6000CDF810C006EB07110E900022481E80B22E
:106C70002E5C12AF06EBC616685C2644BE503E463C
:106C8000164400EBC010083220441031102A89B29B
:106C90007060EBD1DDF83080591ED8F80420C9B2FD
:106CA00052080F92002B00F00481DDF83890099E05
:106CB0000131C9F57F49D8F80000129A139B149C42
:106CC000159D0E4409F1FF09039005920693079460
:106CD00008951196CDF83490D4E0560E751CC2F389
:106CE0005703059CDDF81880A45D18F80680059F01
:106CF0000F99DDF81C900A9411447C5DCDF82C802E
:106D0000089FDDF8188003914A0E17F806C019F89D
:106D1000061019F805B018F80580039E7D5D0C9FDC
:106D2000C1EB0B0B3E600A9F03FB0BFBE41B03FB59
:106D300004F4501C19F800A0CDF80880019419F84B
:106D40000280039C0902DDF82090A1F50041C8EB08
:106D50000A0A01EB2B4BC4F3570119F80260CCEB84
:106D6000050519F800900AFB01FA03FB05F5C6EBCF
:106D700009094FEA0828A8F5004809FB01F94FEA7C
:106D80000C2C0B9C08EB2A4AACF5004CDDF8088073
:106D90000CEB254C3602059DC4EB0807A6F5004612
:106DA00015F8028006EB294903FB07F7069E2B5CCA
:106DB000B25C305CC8EB030301FB03F3801A00FBF9
:106DC00001F04FEA08280A99A8F500480E0208EBDE
:106DD0002348019B1FFA8AFAA6F500461FFA8BFB8F
:106DE000250206EB2346049C0FFA8AF30FFA89F971
:106DF000C3EB0909A5F500450FFA8BF30FFA8CFCDC
:106E0000120204FB09F9B6B205EB2747A2F50042CE
:106E1000C3EB0C0C35B21FFA88F804FB0CFC02EB38
:106E200020403FB20FFA88F47F1B00B2049D001B84
:106E300005FB00F00AEB294ADDF8389005FB07F75F
:106E40000BEB2C4B0FFA8AFA0FFA8BFB09FB0AFAB1
:106E500009FB0BFB08EB20480D9806EB27460FFAC1
:106E600088F836B200FB08AA00FB06BB10994FEA6F
:106E70006A4A0AEB6B4B21F802BB099C119D1091E9
:106E8000AC4216D0039A0F9FDDF83080DDF82490D5
:106E90003A44C8F8002019F8013BCDF82490002BA3
:106EA0003FF41BAF0C9800221346026016460125E2
:106EB00017E716B0BDE8F00F704700BF6CB70108C8
:106EC0003CDE00082DE9F00F92B00A9081690A9C1F
:106ED000B0F9100001EB410101EB4000B4F91410CE
:106EE0008A4DDDF8288080104912C0F3852C6E5C35
:106EF000D8F8041015F80C70DDF828900E90844C2A
:106F0000B8F912004908654406EBC61807EBC71725
:106F10004FF40046944605910E9AD9F80010274484
:106F200096FBF3F6B0F5005FC9F818206D7801976D
:106F300008EB04024FEAC00B08960D9180F2EA803C
:106F4000591EC9B20991002B00F0D5801FFA8BFBA6
:106F5000CBF57F430493099D049C0CF1020101EBE6
:106F6000450173009BB2FF3407910D990693CDF84C
:106F70000CB0CDF808C0049400233846059E4C0E92
:106F80000E440196760E771CDDF80490955D12F89C
:106F900007804FEA590A10F807C0C5EB0808875D5B
:106FA0002AF07F4606FB08F804F10109C7EB0C0C38
:106FB0000CFB06FC10F809B012F809602D0212F85B
:106FC00004904908A5F50045C9EB060605EB2848DD
:106FD00021F07F4505FB06F6045D0AF07E4A4FEA84
:106FE0000929C4EB0B0B4FEA1A6A3F02A9F50049C5
:106FF0000BFB05F509EB264912F80AB010F80A60F8
:10700000A7F50047DDF820A01FFA88F807EB2C470A
:107010009A440FFA88FC3FB2CCEB07071FFA8AFAB2
:10702000240201F07E41090E07FB0AF7A4F5004493
:107030004FEA0B2B12F801C01FFA89F904EB254423
:10704000ABF5004B455C24B21FFA8BF136020FFA08
:1070500089FB4FEA0C2CA6F50046CBEB040404FB9D
:1070600003F408EB2747ACF5004C0FFA81F82D022A
:1070700036B2C8EB06061FFA8CFCA5F500450AFBE4
:1070800006FA2DB20FFA8CF6AD1B03FB05F509EBE2
:107090002449039C3FB204FB07F70FFA89F904FB6C
:1070A00009F901EB2A4A0CEB254C049D0FFA8AFAE8
:1070B00005FB0A770FFA8CFC05FB0C9C3F14029E23
:1070C00007EB2C477F1026F8027BDDF81C90069F0B
:1070D0000199DDF814803B444E45029641449BB231
:1070E0007FF44CAF0D9A4FEA4803DDF824C01A44F0
:1070F0000CFB03220D920E9C0A9D0D9E6310AB8229
:107100002E6012B0BDE8F00F704700BF8CD00008B1
:107110003CDE00080E9E05EBC515B10189B2254481
:107120000491B0F5804F03F1FF310295C9B280F2AE
:10713000E8801191002BDED0DDF844900CF10201C3
:10714000DDF820801FFA8BFB01EB4901CBF57F476F
:107150004FEA480310910D99CDF824C0FF379BB238
:107160004FF0000C0692CDF830B00B970F93CDF88E
:107170000CC00A460598019910444FEA506A0790DE
:107180000AF1010511F80AB011F80590029C079E5A
:1071900014F80A7014F80580CBEB0909C6F35704FC
:1071A00009FB04F9530ECDF80090DDF81890581C37
:1071B000CE5C11F800C019F80A1019F805A0DDF826
:1071C00008904FEA0B2B19F80350DDF81890ABF537
:1071D000004B19F80330DDF80090C7EB08080BEB03
:1071E000294BDDF80890C1EB0A0A08FB04F804FB00
:1071F0000AFA19F80040C2F35702DDF81890C6EBFE
:107200000C0C0CFB02FC641B19F8000004FB02F4DC
:107210003602C01A3F02A6F500462D0206EB2C46A8
:1072200002FB00F0A7F50047A5F500451FFA8BFB10
:1072300007EB2847B6B205EB24450FFA86FC049A03
:107240000FFA8BF93FB209022DB21B02C9EB0707F7
:10725000CCEB0505A3F50043A1F5004102FB07F7C0
:1072600002FB05F503EB2040089A039B01EB2A4142
:1072700089B280B20CB21A44C4EB090992B2039CE1
:1072800003B20BEB274B02FB09F9C3EB0C0306EB34
:1072900025460C9D0FFA8BFB04FB03F305FB0BFB50
:1072A00036B205FB06F60B9F01EB29490FFA89F967
:1072B00000EB234307FB09BB1BB207FB03634FEA49
:1072C0002B4BDDF824800BEB23435B10DDF83C9067
:1072D00028F8023B23464B449BB2079ADDF814C0C2
:1072E000CDF8248003931098624480457FF442AF28
:1072F0000D9A4FEA4C0311991A4401FB03220D9297
:10730000F9E6B0F5C04F80F2CE800B91002B3FF430
:10731000F2AE1FFA8BFBCBF57F420CF10203FF327A
:1073200003EB41030D9806920993029A019BCDF855
:107330001CB0CDF80CC00446059D670825446E0EB0
:10734000690806F1010C13F806A013F80C90965D7D
:1073500001F07E4812F80CC04FEA186813F80800D4
:1073600021F07F41CAEB0909C6EB0C0C01FB09F9BE
:107370000CFB01FC12F8088000020195A0F500400A
:1073800007F07E454FEA0828640E2D0E80B2A8F55E
:107390000048595DCDF80890CDF820C012F805904E
:1073A00004F1010C05B20FFA88F813F80CB0C5EB24
:1073B000080812F80CC01D5D145D27F07F47C5EB6F
:1073C0000B0BC4EB0C0C07FB0BFB0CFB07FC049F2B
:1073D0004FEA0A2A07FB08F8029F0902AAF5004AA9
:1073E0000AEB274AA1F50041089F4FEA0929360216
:1073F00089B2A9F50049A6F5004606EB27460FFA23
:1074000089F90FB22D02C7EB0909A5F50045049FC4
:10741000240205EB2B45A4F500441FFA8AFA07FB6A
:1074200009F9ADB204EB2C440FFA8AF70FFA85FB89
:10743000DDF810C036B224B2F61BCBEB040400EB2F
:1074400028480CFB04F407980CFB06F60FFA88F8A2
:1074500001EB294100FB08F809B200FB01F105EB43
:1074600024450AEB2646069C36B204FB06882DB25C
:1074700004FB05114FEA2848039D08EB2141491000
:10748000099F25F8021B019C059EBD4203953444CB
:107490007FF452AF0D9A7300DDF82C801A4403FB81
:1074A00008230D9327E60691002B3FF424AE0CF140
:1074B0000203E146DDF818C01FFA8BFB03EB4C0317
:1074C000CBF57F4A0D9F0AF1FF0A0393019B029AB5
:1074D0000499B846CDF808B0CDF810A005984044FE
:1074E0000190400800F078452D0E5E5D12F805C051
:1074F0004FEA580808F078443602240EA6F50046F4
:107500004FEA0C2C1D5DB6B200F07E40ACF5004C8D
:1075100012F804B0000E34B208F07E480FFA8CFC6A
:107520004FEA1868C4EB0C0C2D021C5C175C01FBC5
:107530000CFC13F80800A5F500454FEA0B2BADB283
:1075400012F80880ABF5004B24020FFA85FA0FFA07
:107550008BFBA4F500443F020002A4B2A7F500474C
:10756000A0F500404FEA0828CAEB0B0A80B206EBF0
:107570002C463FB20FFA84FCA8F5004801FB0AFA3A
:10758000CCEB07070FFA88F80FFA80FCCCEB080861
:1075900001FB08F8DDF808C001FB07F736B205EB80
:1075A0002A450CFB06F62DB20CFB05F500EB284036
:1075B00004EB2744DDF8108024B208FB046600B217
:1075C00008FB0055361406EB25456D10039829F885
:1075D000025BDDF80480DDF814C08145E0447FF4EF
:1075E0007DAF0D9A4FEA4C0306991A4403FB012321
:1075F0000D9380E52DE9F00FDFF81C8286B0D8F8F6
:1076000000C0014600F14009CD6A7E4FB5F1807F90
:107610007D4C4FF0000601D80D6B6DBB07FB0CFCD9
:1076200064441FFA84FCBCF5804FDFF8F0A1764D6E
:107630000E6380F0DD8007FB04F4B0F910C0254430
:107640004FEAEC14B0F912C03AF814402F140CFBB6
:1076500007F7E400CE620C634468002F4FEAE75C52
:107660004FEA1426B8BF3F168C62ACBF06FB0C4431
:1076700006FB0744AC468C6210314945C4D1591E03
:10768000C8F800C0C9B2002B00F0B480931C03EB13
:10769000410302925D4F05930EE0BCF5004FA8BF79
:1076A00047F6FF7CC0F2AA80029C059D24F802CB1D
:1076B000AC42029400F09E80456B846A436A016B81
:1076C000C26A866B23442E440A44514D4362C2620F
:1076D000120C35F81220016CC46B03924D4A4FEA2C
:1076E000136C37F81CA00C4432F91C10DFF820C1D1
:1076F0004663C463240C3CF81440856C426C0494CB
:107700002A44C46C056D0FFA8AFB05EB040CCBEB25
:107710000108C3F30F2404FB08F8816DC46D436DA9
:10772000056E4FEA16690AEB2848DFF8E8A00B441B
:10773000254437F81910364C3AF919904264C0F8CC
:107740004CC04FEA1C4C34F81CC00CB2C6F30F26D8
:10775000C4EB090906FB09F94FEA126A2D4E37F806
:107760001A40CDF804C0DFF8ACC036F91AA001EB1E
:10777000294943651E0EC56537F816103CF916B049
:107780000FFA89F60FFA84F9C9EB0A0AC2F30F223D
:1077900002FB0AF204EB22420CB2C4EB0B0BC3F364
:1077A0000F2303FB0BF3DDF810C0039CDFF860A090
:1077B0000CFB06F601EB23410FFA88F82D0C019B18
:1077C00004FB08F812B23AF8155003FB02FC09B2A8
:1077D00005FB01F1761406EB684808EB6C4C0CEBEA
:1077E000614C1CF5004FBFF658AF4FF4004C5BE7FF
:1077F000A44641E706B0BDE8F00F70471FFA8CFCC5
:1078000052E700BF0D6619005FF36E3CE07D010892
:10781000546D0108E27D01080403002058AE010800
:10782000591EC9B23BB1931C03EB4101002322F85E
:10783000023B8A42FAD170472DE9F00FB0F91C40A3
:10784000B0F91080B0F91290C4F5804403F1FF3B09
:1078500082B0E4124FEA68284FEAE9295FFA8BFB0D
:1078600053B30168C3684D1C01F1020A0195A4B22B
:10787000DA442946B1FBF4F504FB151501310DB9C5
:107880000133C3601F0A08FB03FC09FB07F703EB86
:1078900083056D0003EB430605F080054CEA060600
:1078A0003D4006EA932635432D02514522F8025BFE
:1078B000E0D1019B5B44036002B0BDE8F00F70476C
:1078C0002DE9F00FB0F91C40B0F91070B0F912C0FA
:1078D000C4F5804403F1FF39E412FF124FEAEC2CA7
:1078E0005FFA89F93BB30168C36801F1020801F14D
:1078F000010AA4B2C8445146B1FBF4F504FB1515C6
:1079000001310DB90133C36007FB03FB0CFB03F628
:1079100003EB83050BEA131B05EAD31545EA0B05B8
:1079200006EA932635432D02414522F8025BE3D156
:107930000AEB09030360BDE8F00F70472DE9F0077B
:10794000B0F91C40B0F91070B0F912C0C4F5804411
:1079500003F1FF39E412FF124FEAEC2C5FFA89F9C8
:1079600003B30368C16803F1020803F1010AA4B27A
:10797000C8445346B3FBF4F504FB153501330DB988
:107980000131C16021FA07F621FA0CF50E4005FB22
:1079900006F543454FEA052522F8025BEAD10AEBDA
:1079A00009030360BDE8F007704700BF2DE9F00F41
:1079B000B0F91C60B0F91070C6F5804603F1FF38CD
:1079C000F612FF125FFA88F890F913505BB3016862
:1079D000C36801F1020C01F10109B6B2C444494681
:1079E000B1FBF6F406FB141401310CB90133C3608A
:1079F00023FA07F4B3FBF5FA05FB1A3A1C4303EB31
:107A0000830B04EB84044BEA932B0BEA44048AEACD
:107A1000030A44EA0A042402614522F8024BDFD13A
:107A200009EB08030360BDE8F00F70472DE9F04F44
:107A300090F8201093B00A9300F5D2730446904654
:107A4000039300F2A457002940F04681A368B4F9DB
:107A5000121094F911205B08A3F500334912C2F10A
:107A6000AC02A58CE68CE06A063192B24FEA132C88
:107A70000CFB01FC0D9206950996A16A0490226BFD
:107A800002E05B084FEA5C0CA448CCEB030585429E
:107A9000A34EF6D8B445F4D8A68E4FEA1C400596FE
:107AA0000A9E2B0C002E00F02D811FFA8CFCCCF5C9
:107AB0007F49C0F50060C3F50053CDF82CC0DDF858
:107AC00018B0DDF818C080B29BB2ADB283449C44BC
:107AD0000698099BC5F57F4A09F1FF090AF1FF0ADB
:107AE000013001330C95CDF838B0CDF83CC008F129
:107AF0000406CDF81C90CDF820A00025109011931D
:107B00000097029227E0B2F5004FC0F2038147F6DA
:107B1000FF7C6246DDF8149001350FFA89F8DDF834
:107B200044B042440A9F4FEA45081FFA8BF95FFAB6
:107B300088F852104B44474526F8042C26F802CC0E
:107B40009BB206F1040600F0B3800498019A0290FB
:107B5000CDF814C00492DDF83880ABB298441FFA17
:107B600088F894E8840008F1FF3C3A44039F2260BF
:107B7000CCF3090C17F90C00DDF83CC0DDF82C90B3
:107B80009C441FFA8CFC09FB00F0DDF800A00CF10E
:107B9000FF39C8F3090817F90880DDF81CB0C9F3EC
:107BA0000B091AF909900C9A0BFB080002FB09F962
:107BB00044F26668CCF30B0C08FB01F11AF90C8057
:107BC000DDF824C0089F9C44001407FB08991FFAA5
:107BD0008CFC000243F2B86A0AFB00110CF10108A8
:107BE000DFF844A14FEA68084FEA6C0C3AF81CC071
:107BF0003AF818804FEA29494FEA0929E044C913A5
:107C000009EB5808DDF834B088440BFB08FADFF8BC
:107C10001CC14FEA6A1ABAF1000FB8BFCAF1000AD4
:107C2000E245B8BFD4463F4A4FEA6C2C049F32F875
:107C30001CB041F6243C41F6991A0CFB07FC0AFBE8
:107C400000F0029ADFF8E8A008FB0BF80AFB02FA42
:107C50004FEA2C3C0CEBE030DDF818C000EB2A308A
:107C60004FEAE8389C44C9EB08091FFA8CFC821AD9
:107C70000190C1EB08080098109F4FEA2828CCF328
:107C80000B0B00F80B80DFF8AC801FFA87FA039F1C
:107C90004FEA2929CCF3090C9A44424507F80C9085
:107CA0001FFA8AFABFF62FAF424648F2010C31E7BD
:107CB0000198B3F5B46FA8BF4FF4B463E384049B99
:107CC000CAF30B0AA4F824A0A162E0622363A4F81B
:107CD00034C013B0BDE8F08F184600214FF4806225
:107CE00005F014F800214FF48052384605F00EF8E4
:107CF00004F124000021D02205F008F8002384F8C4
:107D00002030A3E60498DDF814C00492099BDDF846
:107D100018A0CEE71FFA82FCFCE600BF0000FF0FB0
:107D20000000FF0384BF01081CD20108FFFF01000F
:107D300071F4FFFF0180FFFF2DE9F04F90F8201054
:107D40008BB0814690461C46B0F824A0D0F828B0ED
:107D500000F5D277002940F0DA80D9F80820734B7B
:107D60005208A2F580329A4203D9704B52089A42C7
:107D7000FBD8B9F91C50B9F91210B9F91030A5F5B2
:107D8000005505EB61055B106948C3F5DA43A5F3BF
:107D9000C7156033611E30F815509BB2C9B203930A
:107DA00001950691130CB9F82C60002C00F0B980F5
:107DB00092B2C2F57F410091D9F800100292089169
:107DC00000995C4AFF31C3F5805314680091D9F8DB
:107DD000042006999BB207925344C5F580520131A5
:107DE000CDF824900592D946049100259B4626E0C3
:107DF00047F6FF794B45A8BF4B4603FB01F34E49BD
:107E000002EBE3338B425EDBB3F5004FC0F28B80B5
:107E100047F6FF794B46059A36B202FB06F6019902
:107E2000049A01FB03630135C0F30A00C3F30F3664
:107E3000954227F8109028F8026B48D0E146A8B286
:107E400000EB0B033D4A9BB202FB04F2591EC1F347
:107E50000A0137F911C03A4C0299144401FB0CFC99
:107E60000399C3F30A03221437F9133001FB02F21A
:107E70000099D21301FB03CC46F2666303FB02F2C6
:107E80004FEA6C4C2F4B0CEB090103FB01F1D213B1
:107E900002F5CC42663203F66623C2EB213103FBC6
:107EA00001F31B1303F5B343DFF88C901A335044EE
:107EB0004B4580B29CDA4B4603FB01F31E4902EBB3
:107EC000E3338B42A0DA0B4648F20109A3E7089995
:107ED000079B079A0B4406990AF1010A01FB02333A
:107EE000DDF824901FFA8AFA124A8A44C9F8003051
:107EF0001FFA8AFA146036B2CAF30A0AC9F82C606B
:107F0000A9F824A0C9F828C00BB0BDE8F08F384606
:107F100000214FF4805204F0F9FE002389F820304C
:107F20001BE7DC46E7E71FFA83F974E70000FF0769
:107F30001CD10108040300200180FFFF0D66190019
:107F40005FF36E3CCDF0FFFF2DE9F04F93B0C58C91
:107F50001193C76A838C90F8201000F2A45800F5A2
:107F6000D27C089504460B920493856A0997066BA8
:107F7000CDF81880CDF81CC0002940F01181A3680D
:107F8000B4F912205B00A3F500339212190A3032C3
:107F900001FB02F9C9EB030302E05B084FEA590950
:107FA000894A8A499342F8D88945F6D8B4F910200D
:107FB000B4F91C0086491211C2F50362C01131F8F0
:107FC0001000043292B24FEA19410E920A90002238
:107FD000180C0592CDF840900C900D91DDF844B04E
:107FE0002A460F93B14617E0B5F5004FA8BF47F6F4
:107FF000FF75C0F2E780DDF82CC01BF0030F2CF8F2
:10800000025BCDF82CC003D00898431C9BB20893A8
:108010000599099201310591059D0BF1FF330498F3
:10802000A9B25FFA83FB0844BBF1FF0F80B200F0F6
:10803000A280049B0C9D03F5005CC5EB0C0C8C44EA
:10804000256863681FFA8CFC2B44069F0CF1FF36F1
:108050002360DDF83C80C6F30B06BD571FFA88F796
:1080600005FB07F55B4E0395069DCCF30B0C15F94C
:108070000CC0594B3568C7F57F4703FB05FA049BD5
:10808000FF3703F50068039B07FB0C350D9FDDF8F8
:1080900028C0C7EB08088844504B2D14CCF58057F6
:1080A0001FFA88F86D025344029502FB07F2079D00
:1080B0000E9F08F1FF314FEA234CC1F3090115F976
:1080C00001A007FB0CFC0A9D029F454905FB1722F6
:1080D0000192089A109D31F8127040F6D77101FB99
:1080E00009F9A9B2079DC8F3090815F908800AFB28
:1080F00001FACDF80C80DDF80480099D4FEA2832A2
:10810000C5EB02087F00039D4FEA2C3CC1F57F417F
:1081100007FB0CFCFF3101FB05A108EB293907EB3C
:10812000EC374FEA69083360C8EB07070914079B6F
:108130007F12C0F3090C490203F80C7017D4B1F593
:10814000803F16DBFF21274B029F33F911307D1052
:108150004344DDF81880C0F30B005B1215F5004FA7
:1081600008F800303FF740AF48F2010543E700212F
:10817000E9E70912E7E7119B049FDDF820803B4403
:10818000A384099BB8F5B47F28BF4FF4B478A4F852
:108190002680A262E362C4F8309013B0BDE8F08F8D
:1081A00000214FF48052404604F0B0FD07980021B2
:1081B0004FF4806204F0AAFD00231D4684F82030AD
:1081C0000893DCE6ADB216E70000FF0F0000FF03E6
:1081D0001CD10108040300200D6619005FF36E3CFA
:1081E0006CB80108EC7A01082DE9F00FC17F8EB060
:1081F0000593B1B30023012140F6FD7A40F60C59F6
:108200004FF030084FF4406CC0274FF484564FF4C1
:1082100080454024C0F8F430C0F8FC30C0F800318C
:10822000C0F81031C0F81431C0F82431C0F828313A
:10823000C0F85831C0F85C31C377C0F820A1C0F84D
:10824000F890C0F80881C0F80CC1C0F81C71A0F803
:108250004661A0F8485180F8441180F86011C0F8D8
:108260004C4190F8203003B3D0F8F440D0F8081116
:10827000D0F81C31DFF85883DFF858C301340131DE
:108280000133002744F250662225C0F8FC40C0F8B4
:108290001011C0F82431C0F80481C0F818C180F86A
:1082A0002070C0F82C61C0F84C51B0F91030B0F912
:1082B00012105B0001FB01F1C3F57F43FF3303FBA9
:1082C00003F4C90B01FB01F1240C03FB04F3090CBB
:1082D00001EB410180319B0C07910599C3F5FF43E8
:1082E0000124A0F8483180F84441D0F828B0002992
:1082F00000F06181D0F8F830D0F80451D0F818615E
:10830000D0F82071D0F824110B93D0F84C31099596
:108310000A960C970091039390F86051D0F8006191
:10832000D0F81431D0F82871D0F80C1102950196CC
:1083300006970D919A460B9B019D03FB05F1D0F822
:10834000FC30090B002B019109DD013BC0F8FC302A
:108350002BB9099B002BB8BF5B4219440191099EC0
:10836000D0F81031002EB6BF019F01997942002B41
:1083700000F004810D9E01F5804106FB0AF54FEAED
:10838000153AC0F814A10ADD013BC0F8103133B929
:108390000A9B002BB8BF5B429A44C0F814A10A9F05
:1083A0000C9D002F069FB4BFCAF10003534605FB86
:1083B00007F61944009B360B002B40F3EF80013B7E
:1083C0000093C0F82431002B40F0E380D0F82C312A
:1083D000858B002BB8BF5B42F318069300262E4412
:1083E000B6B2002C40F0C480B0F84651751B18BFDF
:1083F0000125A0F84661161DD0F8583180F8445187
:108400000C110496CDF820A0002D5FD1D0F8548136
:10841000D0F85061039F77B1B3F5805F40F3AA8035
:10842000A3F500674FEAE70C1D11039FE04405FB2D
:1084300007F506EB6526D0F85C71624D06FB07FC7C
:1084400008FB07F803EBEC33AB42A1EBE83880F212
:108450008780C0F858512B46C3EB080808FB06F686
:10846000584D07EBE636AE4207DBB6F5004FB8BF16
:10847000C0F85C6103DB47F6FF75C0F85C51029DF4
:10848000012D00F08380029E022E0CBF45461D4642
:1084900005EB0408079FCBEB080807FB08F8494DDC
:1084A0000BEBE83BAB4548DBBBF5004FB8BF1FFA11
:1084B0008BF502DB47F6FF7B5D4622F8025B049DED
:1084C000AA4242D090F84451002D9FD0B0F946C145
:1084D0003D4EB0F948713D4D4FEA4C4C4FEA1C6897
:1084E0007F0406F1020939F8189036F8186005F192
:1084F000020A4FEA176835F818503AF818804FEA20
:108500001C2C3F0AC5EB0808C6EB09091FFA8CFCB6
:10851000BFB207FB08F70CFB09FC05EB174506EBA0
:108520001C46ADB2B6B24FF0000AC0F85061C0F8B8
:108530005451A84680F844A16CE7AB4648F20105C7
:1085400022F8025B049DAA42BCD1059EDDF820A062
:10855000B31E13F0FF03059327D090F84441EAE6D9
:10856000B3F5004FA8BF47F6FF73C0F8583173E763
:1085700001253EE74FF0000C802556E70D9D05FBD9
:108580000AF34FEA133AC0F814A108E7D0F85C5197
:108590007EE70696858B4FF4086620E7858B069666
:1085A0003FF41CAF4FF4086619E7019F0699C0F825
:1085B0000071C0F82811C0F828B00EB0BDE8F00F67
:1085C000704700BF0180FFFF94CD010840630108A0
:1085D000333304003DCAFFFF2DE9F00FC17F9EB089
:1085E0000A93002940F0978390F8841190F8203086
:1085F000002B40F02983838B90F8445103F5C0642D
:10860000A4B290F86461002D40F0E283B0F846C156
:10861000B4EB0C0C18BF4FF0010C03F5406580F86B
:1086200044C1A0F84641ADB2002E40F0DF83B0F85F
:1086300066412C1B18BF012403F5F0539BB280F850
:108640006441A0F86651002940F0FC82B0F88651E0
:108650005D1B18BF0125B0F91010A0F88631491034
:10866000C1F5AB460A9B01F5AB41703601F17007CD
:1086700080F8845118961997002B00F0DF82D0F80B
:10868000F860D0F804311A96224FD0F80C61D7F870
:1086900000801493D0F81071D0F818311B96D0F8E0
:1086A000206103971593D0F82471D0F82C311C96D3
:1086B000D0F8346104971693D0F84071D0F84C315B
:1086C0001D9690F8606117971193D0F86C71D0F8EF
:1086D0008C310E9690F8809190F8A06112971393C8
:1086E000D0F858B1D0F87811CDF83C90D0F8983146
:1086F0001096D0F80071D0F8146106970796D0F85C
:108700002871D0F83C6104320897099605920D95BE
:108710000C9400E104030020D0F85481D0F850619B
:10872000119D7DB1BBF5805F40F36F82ABF50067B3
:108730004FEAE70C4FEA2B15119FE04405FB07F5C4
:1087400006EB6526D0F85C71C04D06FB07FC08FB04
:1087500007F80BEBEC3BAB45A4EBE83806DBBBF5CD
:10876000004FA8BF47F6FF75C0F23D83C0F85851CF
:10877000AB46CBEB080808FB06F6B44D07EBE63634
:10878000AE4206DBB6F5004FA8BF47F6FF75C0F254
:108790002783C0F85C510E9D012D00F03A820E9E99
:1087A000022E0CBF45465D46189F05EB241407FBBF
:1087B00004F40C9DE413002D40F0C481D0F87481C2
:1087C000D0F87061129D75B1B1F5805F40F31982E8
:1087D000A1F500674FEAE70C0D11129FE04405FB7D
:1087E00007F506EB6526D0F87C71984D06FB07FC73
:1087F00008FB07F801EBEC31A942A2EBE83880F264
:108800009981C0F878512946C1EB080808FB06F6A3
:108810008E4D07EBE636AE4206DBB6F5004FA8BF3D
:1088200047F6FF75C0F2D982C0F87C510F9D012D2B
:1088300000F0F2810F9E022E0CBF45460D46199F97
:1088400005EB221207FB02F204EBE2340D9A002A38
:1088500040F03D81D0F89421D0F89051139E76B12C
:10886000B3F5805F40F3C981A3F500674FEAE70CD9
:108870001E11139F624406FB07F605EB6625D0F830
:108880009C71724E05FB07FC02FB07F203EBEC3315
:10889000DDF82C80B342A8EBE23280F2A681C0F86A
:1088A00098613346D21A02FB05F5684E07EBE535B1
:1088B000B54280F28C81109DC0F89C61012D00F0C2
:1088C0009181109E022E18BF1A46224412F5004FC5
:1088D00040F37A81B2F5004FA8BF47F6FF72C0F2AD
:1088E0007A820A9FDDF81480BC1E28F8042C28F830
:1088F000022C14F0FF0408F10408CDF814800A9447
:1089000000F08D8190F8642190F8844190F844C182
:10891000D0460C920D94069F1A9A07FB02F4D0F8E9
:10892000FC20240B002A069409DD013AC0F8FC2043
:108930002AB9149A002AB8BF524214440694149CCF
:10894000079F002C1B9CB8BF069D07FB04F2B8BF15
:108950006E42039DA8BF069E120B002D07920BDDF1
:10896000013D0395C0F8105135B9159A079F002AAB
:10897000B8BF524217440797159A089F002AB6BFFE
:10898000079D079C6C421C9D344407FB05F2039F26
:10899000120B0892049A002F40F63D2508BF0025CF
:1089A000002A2C440BDD013A0492C0F8242132B98C
:1089B000169A089D002AB8BF524215440895169E83
:1089C000099D002EB8BF089F214AB8BFC7F1000912
:1089D0001D9F02FB08F805FB07F6049ADFF878A054
:1089E000D0F83851A8BFDDF82090002A43F2333286
:1089F00008BF0022360BC244002D09964A444FEAB4
:108A00002A460ADD013DC0F8385135B9179D099F46
:108A1000002DB8BF6D422F440997179D002DB6BF9A
:108A2000099F099D7D4205FB06F6F6130B96BCF1E6
:108A3000000F3FF471AEB0F946C1064E4FEA4C4C00
:108A40004FEA1C6806F1020908E000BF0180FFFF41
:108A50000D66190094CD01085FF36E3CB0F94871C2
:108A600039F818907F044FEA1C2C36F81860CDF8BE
:108A700008904FEA17681FFA8CFC3F0ADFF87C93D6
:108A8000CDF800C0BFB2DDF808C0D94D0297009FF5
:108A900035F8185039F81880C6EB0C0907FB09FCAB
:108AA000DDF80890CDF80480C5EB080809FB08F74D
:108AB00006EB1C4605EB1745ADB2B6B20027C0F871
:108AC0005061C0F85451A84680F8447128E6B0F9C6
:108AD0008671C84DB0F98861C54A7F044FEA176CAA
:108AE000760405F1020838F81C8035F81C5002F1B4
:108AF00002094FEA166C32F81C2039F81CC03F0AF4
:108B0000360AC5EB0808C2EB0C0CBFB2B6B207FBC5
:108B100008F706FB0CF605EB174502EB1642ADB263
:108B200092B24FF00009C0F89051C0F8942180F83B
:108B3000849193E6B1F5004FA8BF47F6FF71C0F8E6
:108B4000781161E6B0F966C1AA4E4FEA4C4C4FEA83
:108B50001C6806F10209B0F9687139F818907F04B1
:108B60004FEA1C2C36F81860CDF830904FEA1768A1
:108B70001FFA8CFC3F0ADFF88492CDF804C0BFB224
:108B8000DDF830C09A4D0C97019F35F8185039F830
:108B90001880C6EB0C0907FB09FCDDF83090CDF816
:108BA0000880C5EB080809FB08F706EB1C4605EB37
:108BB0001745ADB2B6B20027C0F87061C0F8745165
:108BC000A84680F86471FDE548F2010289E6B5F532
:108BD000004FA8BF47F6FF75C0F89C51109D012DAE
:108BE0007FF46FAED0F89C216FE6B3F5004FA8BFBD
:108BF00047F6FF73C0F8983154E64FF0000C80261A
:108C000037E64FF0000C8025E7E54FF0000C80259B
:108C100092E5D0F85C51C7E5D0F87C510FE6069A92
:108C2000079C089D744E099FC0F80021C0F81441AC
:108C3000C0F82851C6F800A0C0F83C711EB0BDE8CD
:108C4000F00F7047012506E5B0F91280838BB8F567
:108C5000804F1CB2ACBFA8F580450025C4F5404448
:108C600025444FF6FF74A542A8BF2546D0F80861F9
:108C7000C5F34F144FEAA53904F5E24C0136D0F89C
:108C8000F470D0F81C5109F6FC7904F5CF44B8F51E
:108C9000605F1FFA89F904F10404C0F81061D0F88C
:108CA00030610CF1480C07F1010705F10105B8BF6F
:108CB0004FEA48089BB2DFF848A1C0F83491A0F809
:108CC00068414FF4F0294FF00104A0F848C1C0F802
:108CD000FC7043F2333CC0F82451C0F80491B4BF97
:108CE00008F500784FF4E44803F5C06903F54065E2
:108CF00026440027C0F82CC1C0F818A1A446C0F82B
:108D00004081A0F84691ADB2C0F8386180F8444186
:108D100080F8207090E440F6FD7C002301244FF49D
:108D2000845530274FF48046C0F834C14FF4C06AF0
:108D30004FF440694FF496684FF4FA6CC0F8F43081
:108D4000C0F8FC30C0F80031C0F81031C0F8143160
:108D5000C0F82431C0F82831C0F83031C0F83831BB
:108D6000C0F83C31C0F85831C0F85C31C0F84C3123
:108D7000C0F87831C0F87C31C0F86C31C0F8983157
:108D8000C0F89C31C0F8F8A0C0F80871C0F81C7198
:108D9000C0F80C91C0F82081A0F84651A0F86651A7
:108DA000A0F88651A0F84861A0F8686180F84441B5
:108DB00080F8604180F8644180F8804180F8844107
:108DC000C0F88C3180F8A041C377A0F888C10DE4C9
:108DD0004FF0010C21E492B283E5C0F87C6125E5F7
:108DE000C0F85C61D7E4C0F858B1C2E4012423E4C0
:108DF0004063010894CD0108040300204263010888
:108E00000080FFFF10B443F6FF739942A8BF1946D4
:108E1000A1F58043002213F5C06302F10102FAD4E8
:108E200018110849441C51F8244051F8201003F04F
:108E30000F03601A03FB00F301EB2310D0405DF831
:108E4000044B7047647701082DE9F04FB0F91070BA
:108E5000848BA7F5804704EBA70787B00E4639B28D
:108E600091461F4605680190FFF7CCFFDDF80480AE
:108E70000390B8F912304046A3F5804304EBA301F8
:108E800009B2FFF7BFFF7B1EDAB2D8F804300490B6
:108E900005F180450293D8F83040D8F83400002F0F
:108EA00072D03E4B0132B218059203F1020A5BE028
:108EB0005F18C5F30F220231DDF80C803F8844446F
:108EC0004FEA146C33F901B033F81C103AF91CC0A6
:108ED0000FFA87F8CDF800C0C8EB0B0BDDF810C017
:108EE00002FB0BFB009A0FFA81F86044C8EB020CFE
:108EF000C4F30F2808FB0CF84FEA106C33F81C2061
:108F00003AF91CC001EB28410FFA82F8C8EB0C0CAF
:108F100007EB2B47C0F30F2809B208FB0CFC3FB24C
:108F200001FB07F702EB2C4C3F140FFA8CF101FB0D
:108F300007F10914A1F5004189B2DFF864800F122E
:108F400038F8172008F1020838F917C017B2C7EB34
:108F50000C07C9B201FB07F1DDF814C002EB2122B6
:108F6000664529F8022B0FD0029A16F801CB15445A
:108F7000290E00224900094FBCF1000F98D010467D
:108F800014461546022197E7019E05F140453560DC
:108F90003463706307B0BDE8F08F00BFE07D010867
:108FA000E87801082DE9F04FB0F91070868B07F5CD
:108FB000806707FB07F795B00196DDF804C07F12C4
:108FC000039313AB04460D460292A7EB87061FFAE4
:108FD0008CFA0DF1300804930AEB264B1FFA8BFB39
:108FE0000FFA8BF12046FFF70DFF0BF101018146CF
:108FF00009B22046FFF706FFB3B2C9EB000003FB3E
:1090000000F3DDF810C009EB234348F8043FE045C6
:109010003E44E1D194F8203093B16F4E0022316884
:1090200000E019466D486E4B00FB01F0A1180432B8
:109030000344182A4B62F4D10022336084F82020C4
:10904000B4F9123042F6A9229342019EA3F52A53A5
:10905000A3F12A030FFA86FB03EB4303D4BF0BEB08
:10906000A3020BEBE30282F30F025E4B5204110EDC
:10907000981C33F8113030F811104FEA1229C91A30
:109080001FFA89F909FB01F9574A039E128803EB7D
:109090001943711E04921FFA83F9C9B2606D226DE3
:1090A000002E00F092800E9E0D9B06960F9E0131C1
:1090B0000796109E03930896119E69180996129EB2
:1090C00023680A960591139E0399DFF824810B9675
:1090D0000B4419E03246BF1A07FB09F117F5004FA0
:1090E00000EBE1306EDDB7F5004FA8BF47F6FF7724
:1090F00070DBDDF808C0059E03992CF8027BB542B1
:10910000CDF808C00B4460D015F8011B31B1002127
:109110006162A162E16221636163A163A66A616A1F
:10912000079FDDF818C037448C44E66A08994FEA77
:10913000D74B31440BEBDC4B266BDDF824A0ABF5B1
:10914000E04BE162B2440BEBD14B0A9E616BA7622C
:1091500031440B9FA66B0BEBDA4B37440BEBD14B37
:109160000BEBD74B0BEBD34BABF5004B1FFA8BFB49
:109170004FEA2B26C4F824C06163C4F830A0A7636B
:10918000DFF870C038F816103CF916700EB2BE1B2E
:109190005FFA8BFB0BFB06FB00FB09FC049E01EB5B
:1091A0002B2106FB00F7114E02EBEC3209B2B24262
:1091B0002360A1EBE7378DDB47F6FF718A42A8BF3A
:1091C0000A4688E748F2010793E72265606515B013
:1091D000BDE8F08FBFB28CE7040300200D661900D4
:1091E0005FF36E3C94CD0108406301080180FFFFEE
:1091F000E8780108EA7801082DE9F04FB0F910602D
:10920000858BA6F5006605EB66068BB036B243F695
:10921000FF750191AE42B4BF3146294604461E4651
:109220000392FFF7EFFD94F821300590043BDBB289
:109230000493059B771E04F12400FFB207C89D0B21
:10924000002E00F0E1806668DDF810C00296ADB235
:109250000CF002060795DDF804C0029D0137BC44FE
:109260006D00F6B22368CDF824C00695089690E00C
:10927000C3F3CF3A8AEAE377DDF814C06FEA0A0A4B
:109280006FEA1345BFB294F83060604400971FFA4C
:109290008AFAADB24FEA430C029F9F4203D95D4860
:1092A000049F50F82700069F674500F28A80DDF88A
:1092B00014C06144584F4FEA116C37F81C800237D4
:1092C00037F91CB00FFA88FCCCEB0B0BC1F30F2C59
:1092D0000CFB0BFB4FEA1069023F37F819C002374D
:1092E00037F9199008EB2B480FFA8CFBCBEB0909E7
:1092F000C0F30F2B0BFB09FB0FFA88F80AFB08F8E9
:10930000B4F812900CEB2B4BDDF800C00FFA89FA81
:109310004FEA28480FFA8BFBBAF5804FA8BF654685
:109320000EB1C8F10008079E06FB08F73B4E02EBA2
:109330002742B24266DB47F6FF76B242A8BF32460A
:10934000089F002F4AD00BFB05FB1FFA88F84FEA55
:109350001B4BBAF5804FA8BF6FEA09094FEA89098C
:109360001FFA89F90FFA88F808FB09F8C9F57F494F
:1093700009F1FF090FFA8BFB09FB0B89039E019F83
:10938000DDF824C04FEA294926F8029B6745039679
:109390003AD0029E019F3344236017F8015B019786
:1093A000002D3FF465AF002201264FF6FF7A0092B0
:1093B0001346226011461046944684F830605546A4
:1093C0006AE7049986F0010601F0010C11490CF1DD
:1093D000020C51F82C1084F830606BE70BF5004B51
:1093E0000BFB05FB049D4FEA2B4B012DABF5004B0E
:1093F00008BF90441FFA8BFB14BF1FFA82F8C8F312
:109400004F08A6E732469BE76062A162E2620BB0BA
:10941000BDE8F08F90D50008E07D01080180FFFFD6
:109420002DE9F04FB0F9105087B00E466910044690
:109430001F460292FFF7E6FCB4F91210606205467F
:1094400049102046FFF7DEFC7B1E8046A062DBB29F
:10945000002F7ED05A1C6168B218DFF804B123686F
:10946000039105925FE00144C3F30F290230276B9B
:10947000626B3D444244DFF8E08025634FEA156C9F
:109480003BF81C7038F81CA0DFF8D0C062633CF8D1
:1094900000000197304F4FEA126800903BF8180027
:1094A00037F81880039F09889F424CD8019F0FFA14
:1094B0008AFA0FFA87FCCCEB0A0CC5F30F250FFADA
:1094C00080FA0FFA88F8009F05FB0CF5CAEB080834
:1094D000C2F30F2202FB08F2C1EB070C09FB0CFCE4
:1094E000DDF8048000EB224008EB254545F34E05EE
:1094F00001EB1C4105F5C04540F38D00C1F34E0161
:109500002A1802FB01F2D213A2F5C04292B2DDF892
:1095100008C005992CF8022B8E42CDF808C018D04F
:10952000656AD4F82880039A0C491344236016F81E
:10953000017B0022180E91464000002F93D022603C
:109540000220134693E70022226362634FF4204215
:10955000DDE707B0BDE8F08FE27D01085C7301082C
:10956000E07D01082DE9F04F858BB0F9124005F53B
:10957000C065A4F5804405EB640485B00D4621B2B6
:1095800080461E469146FFF73DFCB8F81030B8F90A
:1095900014C01CB24008711E47F6FF720190C9B298
:1095A000CCEB040092FBF6F2D8F82440002E4BD00E
:1095B00002FB00F2013100926918D8F80420264815
:1095C0000291D8F8003000990392821C039EDDF8C6
:1095D00000B03344C8F8003015F8017B0CEBE13AD9
:1095E000002659441FB13346C8F800603446019E36
:1095F0003444270E30F8176032F917B037B2C7EB92
:109600000B07C4F30F2B0BFB07F706EB27473FB203
:109610000AFB07F703EB87074FEA176A30F81A606F
:1096200032F91AB00FFA86FACAEB0B0AC7F30F2702
:1096300007FB0AF7DDF808B006EB27475D4529F878
:10964000027BC3D1B8F81030A8F81430C8F8244011
:1096500005B0BDE8F08F00BFE07D01082DE9F04FB7
:109660008046B0F81CE0B0F912000FFA8EF4A0F5B5
:109670008040A4F5105440100444A400C4F5FF44F5
:1096800087B07F3400940D460099914600291E460C
:10969000B8F82870D8F82440C0F2878047F6FF73E6
:1096A0009942A8BF194600910EF5C06E0EEB00015D
:1096B00009B24046FFF7A6FBB8F91410B8F810300D
:1096C0000191DDF804B00FFA83FC47F6FF71721EBA
:1096D00040080390CBEB0C0C91FBF6F1D2B2002EBC
:1096E0005AD001FB0CF10291D8F804103148013234
:1096F000AA180591D8F8003002990492821CDDF86E
:1097000004B0059E0BEBE13CDDF800B033440BFBED
:109710000CFCC8F80030DDF808B015F801AB3FB21A
:1097200000264FEAEC3C5944BAF1000F03D033460F
:10973000C8F800603446039E344404EB87374FEA90
:10974000176A30F81A6032F91AB00FFA86FACAEBC3
:109750000B0AC7F30F2707FB0AF706EB27473FB2B1
:109760000CFB07FC03EB4C0C4FEA1C6630F8167040
:1097700032F916A03EB2CCF30F2CC6EB0A060CFB56
:1097800006FCDDF810B007EB2C47BFB25D4529F8A9
:10979000027BB4D1B8F81030A8F81430A8F82870BB
:1097A000C8F8244007B0BDE8F08F4FF0000BCDF8AB
:1097B00000B079E7E07D01082DE9F04F858BB0F925
:1097C000124005F5C065A4F5804405EB6404074626
:1097D00087B00D4621B21E469046FFF713FBB7F93E
:1097E00014203B8A0192DDF804901CB2721E47F6E9
:1097F000FF71C9EB040C91FBF6F15FFA82F97C6A08
:109800003A8D002E61D001FB0CF109F101097A6853
:10981000A944400A0291DFF8C4C03B680492CDF825
:109820000C900590009732E00CEB0A00C4F30F2275
:109830000AF1020A00883CF90A7006B2BE1B02FB5C
:1098400006F600EB264636B209FB06F903EB49099A
:109850004FEA1960204F3CF8102037F9106010B221
:10986000301AC9F30F2909FB00F902EB294292B221
:1098700042F34620DDF814B081300BFB004403981E
:10988000DDF808908542494428F8022B1BD0049E3D
:10989000DDF800903344C9F80030DDF804B015F865
:1098A000017B00264FEA146A32464FEA4A0A0B4807
:1098B0000BEBE139002FB7D0009C334626604FF008
:1098C000020A3446B6E7009F3B8ABB823A857C6237
:1098D00007B0BDE8F08F00BFE27D0108E07D010820
:1098E0002DE9F04F90F8201093B08046144606936F
:1098F000002900F02A81B34AC66F02F10C05034625
:1099000032F9021FB6F5806F4FF08040B8BF586241
:10991000AA42C3F8A81003F10403F1D1002388F888
:109920002030B8F81CA0A84D1FFA8AF905F10C07E1
:10993000464635F8021F4046494409B2FFF762FA2D
:10994000BD424FEA4000306506F10406F1D1B8F996
:1099500012300FFA8AF1A1F5C06101EBA3019B4A15
:1099600081F30F010904080E951C35F8105032F8E8
:109970001020090A88B2A91A00FB01F002EB10427C
:1099800092B2B8F8D4000592D8F8DC2043F25721FF
:1099900007900292D8F8E000D8F8E4208B420390B8
:1099A000019200F3F88003F5805309930023089394
:1099B000069A4FF4803393FBF2F30A93002A00F0E7
:1099C000AC800434824B0494089C1968C4F540545C
:1099D0000B944FF0000C08F124097E4BDDF828A011
:1099E00003FB01F37C497A4819440B14B3F5804F0B
:1099F000D444016000F38E80784A9342B8BF134686
:109A0000029A059C9B1A04FB03F3039802EBE332D2
:109A1000131A04FB03F30292019A00EBE330831A5A
:109A200004FB03F3019C002204EBE3340194039054
:109A300017464C46C8EB04034B449D6853F8240C6E
:109A4000DFF8A4A1284443F8240C050E3AF8156069
:109A50000AF1020A3AF915B05D6B0FFA86FA1B6E2D
:109A6000C0F30F20CAEB0B0A00FB0AF05B1B0CFBD8
:109A700003F306EB204636B205EBE33303FB06F3B4
:109A80000CA81B1483500432182A04F104041F4448
:109A9000D0D1019C0D9A0F9B02FB04F203FB04F34F
:109AA000DDF82CA008981212099C0AFB02F25B1246
:109AB00000FB03F304FB07F70C98494C00EBA230C2
:109AC00000EBA33303EBA737A7421FDBB7F5004F2B
:109AD000B8BFBAB202DB47F6FF721746DDF81CA02A
